{
  "address": "0xe7f1725E7734CE288F8367e1Bb143E90bb3F0512",
  "abi": [
    {
      "inputs": [
        {
          "internalType": "address",
          "name": "priceFeedAddress",
          "type": "address"
        }
      ],
      "stateMutability": "nonpayable",
      "type": "constructor"
    },
    {
      "inputs": [],
      "name": "FundMe_NotOwner",
      "type": "error"
    },
    {
      "stateMutability": "payable",
      "type": "fallback"
    },
    {
      "inputs": [],
      "name": "MINIMUM_USD",
      "outputs": [
        {
          "internalType": "uint256",
          "name": "",
          "type": "uint256"
        }
      ],
      "stateMutability": "view",
      "type": "function"
    },
    {
      "inputs": [],
      "name": "fund",
      "outputs": [],
      "stateMutability": "payable",
      "type": "function"
    },
    {
      "inputs": [
        {
          "internalType": "address",
          "name": "funder",
          "type": "address"
        }
      ],
      "name": "getAddressToAmountFunded",
      "outputs": [
        {
          "internalType": "uint256",
          "name": "",
          "type": "uint256"
        }
      ],
      "stateMutability": "view",
      "type": "function"
    },
    {
      "inputs": [
        {
          "internalType": "uint256",
          "name": "index",
          "type": "uint256"
        }
      ],
      "name": "getFunder",
      "outputs": [
        {
          "internalType": "address",
          "name": "",
          "type": "address"
        }
      ],
      "stateMutability": "view",
      "type": "function"
    },
    {
      "inputs": [],
      "name": "getOwner",
      "outputs": [
        {
          "internalType": "address",
          "name": "",
          "type": "address"
        }
      ],
      "stateMutability": "view",
      "type": "function"
    },
    {
      "inputs": [],
      "name": "getPriceFeed",
      "outputs": [
        {
          "internalType": "contract AggregatorV3Interface",
          "name": "",
          "type": "address"
        }
      ],
      "stateMutability": "view",
      "type": "function"
    },
    {
      "inputs": [],
      "name": "withdraw",
      "outputs": [],
      "stateMutability": "payable",
      "type": "function"
    },
    {
      "stateMutability": "payable",
      "type": "receive"
    }
  ],
  "transactionHash": "0x78dd02fe0a9d9b2110ead9da8451556d352ab0e68994cd1ea7f03859d76bbd25",
  "args": [
    "0x5FbDB2315678afecb367f032d93F642f64180aa3"
  ],
  "numDeployments": 1,
  "solcInputHash": "73aa80b31db567b62dc8058e239225e9",
  "bytecode": "0x60a06040523480156200001157600080fd5b506040516200123938038062001239833981810160405281019062000037919062000120565b3373ffffffffffffffffffffffffffffffffffffffff1660808173ffffffffffffffffffffffffffffffffffffffff1660601b8152505080600260006101000a81548173ffffffffffffffffffffffffffffffffffffffff021916908373ffffffffffffffffffffffffffffffffffffffff1602179055505062000152565b600080fd5b600073ffffffffffffffffffffffffffffffffffffffff82169050919050565b6000620000e882620000bb565b9050919050565b620000fa81620000db565b81146200010657600080fd5b50565b6000815190506200011a81620000ef565b92915050565b600060208284031215620001395762000138620000b6565b5b6000620001498482850162000109565b91505092915050565b60805160601c6110c1620001786000396000818161035e015261061101526110c16000f3fe6080604052600436106100745760003560e01c8063893d20e81161004e578063893d20e8146100ff5780639e87a5cd1461012a578063b60d428814610155578063d7b4750c1461015f57610083565b80630343fb251461008d5780633ccfd60b146100ca5780636b69a592146100d457610083565b366100835761008161019c565b005b61008b61019c565b005b34801561009957600080fd5b506100b460048036038101906100af919061094f565b610314565b6040516100c19190610995565b60405180910390f35b6100d261035c565b005b3480156100e057600080fd5b506100e9610600565b6040516100f69190610995565b60405180910390f35b34801561010b57600080fd5b5061011461060d565b60405161012191906109bf565b60405180910390f35b34801561013657600080fd5b5061013f610635565b60405161014c9190610a39565b60405180910390f35b61015d61019c565b005b34801561016b57600080fd5b5061018660048036038101906101819190610a80565b61065f565b60405161019391906109bf565b60405180910390f35b6802b5e3af16b18800006101db600260009054906101000a900473ffffffffffffffffffffffffffffffffffffffff16346106a790919063ffffffff16565b101561021c576040517f08c379a000000000000000000000000000000000000000000000000000000000815260040161021390610b0a565b60405180910390fd5b346000803373ffffffffffffffffffffffffffffffffffffffff1673ffffffffffffffffffffffffffffffffffffffff168152602001908152602001600020600082825461026a9190610b59565b925050819055506001339080600181540180825580915050600190039060005260206000200160009091909190916101000a81548173ffffffffffffffffffffffffffffffffffffffff021916908373ffffffffffffffffffffffffffffffffffffffff1602179055506103126040518060400160405280601081526020017f66756e64696e67205375636365737321000000000000000000000000000000008152506106e3565b565b60008060008373ffffffffffffffffffffffffffffffffffffffff1673ffffffffffffffffffffffffffffffffffffffff168152602001908152602001600020549050919050565b7f000000000000000000000000000000000000000000000000000000000000000073ffffffffffffffffffffffffffffffffffffffff163373ffffffffffffffffffffffffffffffffffffffff16146103e1576040517f10e0797900000000000000000000000000000000000000000000000000000000815260040160405180910390fd5b6000600180548060200260200160405190810160405280929190818152602001828054801561046557602002820191906000526020600020905b8160009054906101000a900473ffffffffffffffffffffffffffffffffffffffff1673ffffffffffffffffffffffffffffffffffffffff168152602001906001019080831161041b575b5050505050905060005b81518110156104ef57600082828151811061048d5761048c610baf565b5b6020026020010151905060008060008373ffffffffffffffffffffffffffffffffffffffff1673ffffffffffffffffffffffffffffffffffffffff168152602001908152602001600020819055505080806104e790610bde565b91505061046f565b50600067ffffffffffffffff81111561050b5761050a610c27565b5b6040519080825280602002602001820160405280156105395781602001602082028036833780820191505090505b506001908051906020019061054f929190610845565b5060003373ffffffffffffffffffffffffffffffffffffffff164760405161057690610c87565b60006040518083038185875af1925050503d80600081146105b3576040519150601f19603f3d011682016040523d82523d6000602084013e6105b8565b606091505b50509050806105fc576040517f08c379a00000000000000000000000000000000000000000000000000000000081526004016105f390610ce8565b60405180910390fd5b5050565b6802b5e3af16b188000081565b60007f0000000000000000000000000000000000000000000000000000000000000000905090565b6000600260009054906101000a900473ffffffffffffffffffffffffffffffffffffffff16905090565b60006001828154811061067557610674610baf565b5b9060005260206000200160009054906101000a900473ffffffffffffffffffffffffffffffffffffffff169050919050565b6000806106b38361077c565b90506000670de0b6b3a764000085836106cc9190610d08565b6106d69190610d91565b9050809250505092915050565b610779816040516024016106f79190610e4a565b6040516020818303038152906040527f41304fac000000000000000000000000000000000000000000000000000000007bffffffffffffffffffffffffffffffffffffffffffffffffffffffff19166020820180517bffffffffffffffffffffffffffffffffffffffffffffffffffffffff838183161783525050505061081c565b50565b6000808273ffffffffffffffffffffffffffffffffffffffff1663feaf968c6040518163ffffffff1660e01b815260040160a06040518083038186803b1580156107c557600080fd5b505afa1580156107d9573d6000803e3d6000fd5b505050506040513d601f19601f820116820180604052508101906107fd9190610ef9565b5050509150506402540be400816108149190610f74565b915050919050565b60008151905060006a636f6e736f6c652e6c6f679050602083016000808483855afa5050505050565b8280548282559060005260206000209081019282156108be579160200282015b828111156108bd5782518260006101000a81548173ffffffffffffffffffffffffffffffffffffffff021916908373ffffffffffffffffffffffffffffffffffffffff16021790555091602001919060010190610865565b5b5090506108cb91906108cf565b5090565b5b808211156108e85760008160009055506001016108d0565b5090565b600080fd5b600073ffffffffffffffffffffffffffffffffffffffff82169050919050565b600061091c826108f1565b9050919050565b61092c81610911565b811461093757600080fd5b50565b60008135905061094981610923565b92915050565b600060208284031215610965576109646108ec565b5b60006109738482850161093a565b91505092915050565b6000819050919050565b61098f8161097c565b82525050565b60006020820190506109aa6000830184610986565b92915050565b6109b981610911565b82525050565b60006020820190506109d460008301846109b0565b92915050565b6000819050919050565b60006109ff6109fa6109f5846108f1565b6109da565b6108f1565b9050919050565b6000610a11826109e4565b9050919050565b6000610a2382610a06565b9050919050565b610a3381610a18565b82525050565b6000602082019050610a4e6000830184610a2a565b92915050565b610a5d8161097c565b8114610a6857600080fd5b50565b600081359050610a7a81610a54565b92915050565b600060208284031215610a9657610a956108ec565b5b6000610aa484828501610a6b565b91505092915050565b600082825260208201905092915050565b7f596f75206e65656420746f207370656e64206d6f726520455448210000000000600082015250565b6000610af4601b83610aad565b9150610aff82610abe565b602082019050919050565b60006020820190508181036000830152610b2381610ae7565b9050919050565b7f4e487b7100000000000000000000000000000000000000000000000000000000600052601160045260246000fd5b6000610b648261097c565b9150610b6f8361097c565b9250827fffffffffffffffffffffffffffffffffffffffffffffffffffffffffffffffff03821115610ba457610ba3610b2a565b5b828201905092915050565b7f4e487b7100000000000000000000000000000000000000000000000000000000600052603260045260246000fd5b6000610be98261097c565b91507fffffffffffffffffffffffffffffffffffffffffffffffffffffffffffffffff821415610c1c57610c1b610b2a565b5b600182019050919050565b7f4e487b7100000000000000000000000000000000000000000000000000000000600052604160045260246000fd5b600081905092915050565b50565b6000610c71600083610c56565b9150610c7c82610c61565b600082019050919050565b6000610c9282610c64565b9150819050919050565b7f43616c6c206661696c6564000000000000000000000000000000000000000000600082015250565b6000610cd2600b83610aad565b9150610cdd82610c9c565b602082019050919050565b60006020820190508181036000830152610d0181610cc5565b9050919050565b6000610d138261097c565b9150610d1e8361097c565b9250817fffffffffffffffffffffffffffffffffffffffffffffffffffffffffffffffff0483118215151615610d5757610d56610b2a565b5b828202905092915050565b7f4e487b7100000000000000000000000000000000000000000000000000000000600052601260045260246000fd5b6000610d9c8261097c565b9150610da78361097c565b925082610db757610db6610d62565b5b828204905092915050565b600081519050919050565b60005b83811015610deb578082015181840152602081019050610dd0565b83811115610dfa576000848401525b50505050565b6000601f19601f8301169050919050565b6000610e1c82610dc2565b610e268185610aad565b9350610e36818560208601610dcd565b610e3f81610e00565b840191505092915050565b60006020820190508181036000830152610e648184610e11565b905092915050565b600069ffffffffffffffffffff82169050919050565b610e8b81610e6c565b8114610e9657600080fd5b50565b600081519050610ea881610e82565b92915050565b6000819050919050565b610ec181610eae565b8114610ecc57600080fd5b50565b600081519050610ede81610eb8565b92915050565b600081519050610ef381610a54565b92915050565b600080600080600060a08688031215610f1557610f146108ec565b5b6000610f2388828901610e99565b9550506020610f3488828901610ecf565b9450506040610f4588828901610ee4565b9350506060610f5688828901610ee4565b9250506080610f6788828901610e99565b9150509295509295909350565b6000610f7f82610eae565b9150610f8a83610eae565b9250827f7fffffffffffffffffffffffffffffffffffffffffffffffffffffffffffffff0482116000841360008413161615610fc957610fc8610b2a565b5b817f8000000000000000000000000000000000000000000000000000000000000000058312600084126000841316161561100657611005610b2a565b5b827f8000000000000000000000000000000000000000000000000000000000000000058212600084136000841216161561104357611042610b2a565b5b827f7fffffffffffffffffffffffffffffffffffffffffffffffffffffffffffffff05821260008412600084121616156110805761107f610b2a565b5b82820290509291505056fea26469706673582212204a0de4cb69c06c96c8aa2045f3eb78ede1841d4b76cf9aeb243e0137e92a01c664736f6c63430008080033",
  "devdoc": {
    "kind": "dev",
    "methods": {},
    "version": 1
  },
  "userdoc": {
    "kind": "user",
    "methods": {},
    "version": 1
  },
  "storageLayout": {
    "storage": [
      {
        "astId": 59,
        "contract": "contracts/FundMe.sol:FundMe",
        "label": "s_addressToAmountFunded",
        "offset": 0,
        "slot": "0",
        "type": "t_mapping(t_address,t_uint256)"
      },
      {
        "astId": 62,
        "contract": "contracts/FundMe.sol:FundMe",
        "label": "s_funders",
        "offset": 0,
        "slot": "1",
        "type": "t_array(t_address)dyn_storage"
      },
      {
        "astId": 74,
        "contract": "contracts/FundMe.sol:FundMe",
        "label": "s_priceFeed",
        "offset": 0,
        "slot": "2",
        "type": "t_contract(AggregatorV3Interface)45"
      }
    ],
    "types": {
      "t_address": {
        "encoding": "inplace",
        "label": "address",
        "numberOfBytes": "20"
      },
      "t_array(t_address)dyn_storage": {
        "base": "t_address",
        "encoding": "dynamic_array",
        "label": "address[]",
        "numberOfBytes": "32"
      },
      "t_contract(AggregatorV3Interface)45": {
        "encoding": "inplace",
        "label": "contract AggregatorV3Interface",
        "numberOfBytes": "20"
      },
      "t_mapping(t_address,t_uint256)": {
        "encoding": "mapping",
        "key": "t_address",
        "label": "mapping(address => uint256)",
        "numberOfBytes": "32",
        "value": "t_uint256"
      },
      "t_uint256": {
        "encoding": "inplace",
        "label": "uint256",
        "numberOfBytes": "32"
      }
    }
  }
}